{
  "_format": "hh-sol-artifact-1",
  "contractName": "CasinoToken",
  "sourceName": "contracts/CasinoToken.sol",
  "abi": [
    {
      "inputs": [],
      "stateMutability": "nonpayable",
      "type": "constructor"
    },
    {
      "inputs": [
        {
          "internalType": "address",
          "name": "spender",
          "type": "address"
        },
        {
          "internalType": "uint256",
          "name": "allowance",
          "type": "uint256"
        },
        {
          "internalType": "uint256",
          "name": "needed",
          "type": "uint256"
        }
      ],
      "name": "ERC20InsufficientAllowance",
      "type": "error"
    },
    {
      "inputs": [
        {
          "internalType": "address",
          "name": "sender",
          "type": "address"
        },
        {
          "internalType": "uint256",
          "name": "balance",
          "type": "uint256"
        },
        {
          "internalType": "uint256",
          "name": "needed",
          "type": "uint256"
        }
      ],
      "name": "ERC20InsufficientBalance",
      "type": "error"
    },
    {
      "inputs": [
        {
          "internalType": "address",
          "name": "approver",
          "type": "address"
        }
      ],
      "name": "ERC20InvalidApprover",
      "type": "error"
    },
    {
      "inputs": [
        {
          "internalType": "address",
          "name": "receiver",
          "type": "address"
        }
      ],
      "name": "ERC20InvalidReceiver",
      "type": "error"
    },
    {
      "inputs": [
        {
          "internalType": "address",
          "name": "sender",
          "type": "address"
        }
      ],
      "name": "ERC20InvalidSender",
      "type": "error"
    },
    {
      "inputs": [
        {
          "internalType": "address",
          "name": "spender",
          "type": "address"
        }
      ],
      "name": "ERC20InvalidSpender",
      "type": "error"
    },
    {
      "inputs": [
        {
          "internalType": "address",
          "name": "owner",
          "type": "address"
        }
      ],
      "name": "OwnableInvalidOwner",
      "type": "error"
    },
    {
      "inputs": [
        {
          "internalType": "address",
          "name": "account",
          "type": "address"
        }
      ],
      "name": "OwnableUnauthorizedAccount",
      "type": "error"
    },
    {
      "anonymous": false,
      "inputs": [
        {
          "indexed": true,
          "internalType": "address",
          "name": "owner",
          "type": "address"
        },
        {
          "indexed": true,
          "internalType": "address",
          "name": "spender",
          "type": "address"
        },
        {
          "indexed": false,
          "internalType": "uint256",
          "name": "value",
          "type": "uint256"
        }
      ],
      "name": "Approval",
      "type": "event"
    },
    {
      "anonymous": false,
      "inputs": [
        {
          "indexed": true,
          "internalType": "address",
          "name": "previousOwner",
          "type": "address"
        },
        {
          "indexed": true,
          "internalType": "address",
          "name": "newOwner",
          "type": "address"
        }
      ],
      "name": "OwnershipTransferred",
      "type": "event"
    },
    {
      "anonymous": false,
      "inputs": [
        {
          "indexed": true,
          "internalType": "address",
          "name": "buyer",
          "type": "address"
        },
        {
          "indexed": false,
          "internalType": "uint256",
          "name": "amount",
          "type": "uint256"
        },
        {
          "indexed": true,
          "internalType": "address",
          "name": "operator",
          "type": "address"
        }
      ],
      "name": "TokensPurchased",
      "type": "event"
    },
    {
      "anonymous": false,
      "inputs": [
        {
          "indexed": true,
          "internalType": "address",
          "name": "player",
          "type": "address"
        },
        {
          "indexed": false,
          "internalType": "uint256",
          "name": "amount",
          "type": "uint256"
        },
        {
          "indexed": true,
          "internalType": "address",
          "name": "operator",
          "type": "address"
        }
      ],
      "name": "TokensWithdrawn",
      "type": "event"
    },
    {
      "anonymous": false,
      "inputs": [
        {
          "indexed": true,
          "internalType": "address",
          "name": "from",
          "type": "address"
        },
        {
          "indexed": true,
          "internalType": "address",
          "name": "to",
          "type": "address"
        },
        {
          "indexed": false,
          "internalType": "uint256",
          "name": "value",
          "type": "uint256"
        }
      ],
      "name": "Transfer",
      "type": "event"
    },
    {
      "inputs": [
        {
          "internalType": "address",
          "name": "owner",
          "type": "address"
        },
        {
          "internalType": "address",
          "name": "spender",
          "type": "address"
        }
      ],
      "name": "allowance",
      "outputs": [
        {
          "internalType": "uint256",
          "name": "",
          "type": "uint256"
        }
      ],
      "stateMutability": "view",
      "type": "function"
    },
    {
      "inputs": [
        {
          "internalType": "address",
          "name": "spender",
          "type": "address"
        },
        {
          "internalType": "uint256",
          "name": "value",
          "type": "uint256"
        }
      ],
      "name": "approve",
      "outputs": [
        {
          "internalType": "bool",
          "name": "",
          "type": "bool"
        }
      ],
      "stateMutability": "nonpayable",
      "type": "function"
    },
    {
      "inputs": [
        {
          "internalType": "address",
          "name": "account",
          "type": "address"
        }
      ],
      "name": "balanceOf",
      "outputs": [
        {
          "internalType": "uint256",
          "name": "",
          "type": "uint256"
        }
      ],
      "stateMutability": "view",
      "type": "function"
    },
    {
      "inputs": [],
      "name": "decimals",
      "outputs": [
        {
          "internalType": "uint8",
          "name": "",
          "type": "uint8"
        }
      ],
      "stateMutability": "view",
      "type": "function"
    },
    {
      "inputs": [],
      "name": "name",
      "outputs": [
        {
          "internalType": "string",
          "name": "",
          "type": "string"
        }
      ],
      "stateMutability": "view",
      "type": "function"
    },
    {
      "inputs": [],
      "name": "owner",
      "outputs": [
        {
          "internalType": "address",
          "name": "",
          "type": "address"
        }
      ],
      "stateMutability": "view",
      "type": "function"
    },
    {
      "inputs": [
        {
          "internalType": "address",
          "name": "user",
          "type": "address"
        }
      ],
      "name": "purchaseTokensFor",
      "outputs": [],
      "stateMutability": "payable",
      "type": "function"
    },
    {
      "inputs": [],
      "name": "renounceOwnership",
      "outputs": [],
      "stateMutability": "nonpayable",
      "type": "function"
    },
    {
      "inputs": [],
      "name": "symbol",
      "outputs": [
        {
          "internalType": "string",
          "name": "",
          "type": "string"
        }
      ],
      "stateMutability": "view",
      "type": "function"
    },
    {
      "inputs": [],
      "name": "totalSupply",
      "outputs": [
        {
          "internalType": "uint256",
          "name": "",
          "type": "uint256"
        }
      ],
      "stateMutability": "view",
      "type": "function"
    },
    {
      "inputs": [
        {
          "internalType": "address",
          "name": "to",
          "type": "address"
        },
        {
          "internalType": "uint256",
          "name": "value",
          "type": "uint256"
        }
      ],
      "name": "transfer",
      "outputs": [
        {
          "internalType": "bool",
          "name": "",
          "type": "bool"
        }
      ],
      "stateMutability": "nonpayable",
      "type": "function"
    },
    {
      "inputs": [
        {
          "internalType": "address",
          "name": "from",
          "type": "address"
        },
        {
          "internalType": "address",
          "name": "to",
          "type": "address"
        },
        {
          "internalType": "uint256",
          "name": "value",
          "type": "uint256"
        }
      ],
      "name": "transferFrom",
      "outputs": [
        {
          "internalType": "bool",
          "name": "",
          "type": "bool"
        }
      ],
      "stateMutability": "nonpayable",
      "type": "function"
    },
    {
      "inputs": [
        {
          "internalType": "address",
          "name": "newOwner",
          "type": "address"
        }
      ],
      "name": "transferOwnership",
      "outputs": [],
      "stateMutability": "nonpayable",
      "type": "function"
    },
    {
      "inputs": [],
      "name": "withdrawEth",
      "outputs": [],
      "stateMutability": "nonpayable",
      "type": "function"
    },
    {
      "inputs": [
        {
          "internalType": "address",
          "name": "user",
          "type": "address"
        },
        {
          "internalType": "uint256",
          "name": "amount",
          "type": "uint256"
        }
      ],
      "name": "withdrawTokensFor",
      "outputs": [],
      "stateMutability": "nonpayable",
      "type": "function"
    }
  ],
  "bytecode": "0x608060405234801561001057600080fd5b50336040518060400160405280600b81526020017f436173696e6f546f6b656e0000000000000000000000000000000000000000008152506040518060400160405280600381526020017f4353540000000000000000000000000000000000000000000000000000000000815250816003908161008d919061072a565b50806004908161009d919061072a565b505050600073ffffffffffffffffffffffffffffffffffffffff168173ffffffffffffffffffffffffffffffffffffffff16036101125760006040517f1e4fbdf7000000000000000000000000000000000000000000000000000000008152600401610109919061083d565b60405180910390fd5b6101218161015e60201b60201c565b506101593361013461022460201b60201c565b600a61014091906109c7565b620f424061014e9190610a12565b61022d60201b60201c565b610ae9565b6000600560009054906101000a900473ffffffffffffffffffffffffffffffffffffffff16905081600560006101000a81548173ffffffffffffffffffffffffffffffffffffffff021916908373ffffffffffffffffffffffffffffffffffffffff1602179055508173ffffffffffffffffffffffffffffffffffffffff168173ffffffffffffffffffffffffffffffffffffffff167f8be0079c531659141344cd1fd0a4f28419497f9722a3daafe3b4186f6b6457e060405160405180910390a35050565b60006012905090565b600073ffffffffffffffffffffffffffffffffffffffff168273ffffffffffffffffffffffffffffffffffffffff160361029f5760006040517fec442f05000000000000000000000000000000000000000000000000000000008152600401610296919061083d565b60405180910390fd5b6102b1600083836102b560201b60201c565b5050565b600073ffffffffffffffffffffffffffffffffffffffff168373ffffffffffffffffffffffffffffffffffffffff16036103075780600260008282546102fb9190610a54565b925050819055506103da565b60008060008573ffffffffffffffffffffffffffffffffffffffff1673ffffffffffffffffffffffffffffffffffffffff16815260200190815260200160002054905081811015610393578381836040517fe450d38c00000000000000000000000000000000000000000000000000000000815260040161038a93929190610a97565b60405180910390fd5b8181036000808673ffffffffffffffffffffffffffffffffffffffff1673ffffffffffffffffffffffffffffffffffffffff16815260200190815260200160002081905550505b600073ffffffffffffffffffffffffffffffffffffffff168273ffffffffffffffffffffffffffffffffffffffff16036104235780600260008282540392505081905550610470565b806000808473ffffffffffffffffffffffffffffffffffffffff1673ffffffffffffffffffffffffffffffffffffffff168152602001908152602001600020600082825401925050819055505b8173ffffffffffffffffffffffffffffffffffffffff168373ffffffffffffffffffffffffffffffffffffffff167fddf252ad1be2c89b69c2b068fc378daa952ba7f163c4a11628f55a4df523b3ef836040516104cd9190610ace565b60405180910390a3505050565b600081519050919050565b7f4e487b7100000000000000000000000000000000000000000000000000000000600052604160045260246000fd5b7f4e487b7100000000000000000000000000000000000000000000000000000000600052602260045260246000fd5b6000600282049050600182168061055b57607f821691505b60208210810361056e5761056d610514565b5b50919050565b60008190508160005260206000209050919050565b60006020601f8301049050919050565b600082821b905092915050565b6000600883026105d67fffffffffffffffffffffffffffffffffffffffffffffffffffffffffffffffff82610599565b6105e08683610599565b95508019841693508086168417925050509392505050565b6000819050919050565b6000819050919050565b600061062761062261061d846105f8565b610602565b6105f8565b9050919050565b6000819050919050565b6106418361060c565b61065561064d8261062e565b8484546105a6565b825550505050565b600090565b61066a61065d565b610675818484610638565b505050565b5b818110156106995761068e600082610662565b60018101905061067b565b5050565b601f8211156106de576106af81610574565b6106b884610589565b810160208510156106c7578190505b6106db6106d385610589565b83018261067a565b50505b505050565b600082821c905092915050565b6000610701600019846008026106e3565b1980831691505092915050565b600061071a83836106f0565b9150826002028217905092915050565b610733826104da565b67ffffffffffffffff81111561074c5761074b6104e5565b5b6107568254610543565b61076182828561069d565b600060209050601f8311600181146107945760008415610782578287015190505b61078c858261070e565b8655506107f4565b601f1984166107a286610574565b60005b828110156107ca578489015182556001820191506020850194506020810190506107a5565b868310156107e757848901516107e3601f8916826106f0565b8355505b6001600288020188555050505b505050505050565b600073ffffffffffffffffffffffffffffffffffffffff82169050919050565b6000610827826107fc565b9050919050565b6108378161081c565b82525050565b6000602082019050610852600083018461082e565b92915050565b7f4e487b7100000000000000000000000000000000000000000000000000000000600052601160045260246000fd5b60008160011c9050919050565b6000808291508390505b60018511156108de578086048111156108ba576108b9610858565b5b60018516156108c95780820291505b80810290506108d785610887565b945061089e565b94509492505050565b6000826108f757600190506109b3565b8161090557600090506109b3565b816001811461091b576002811461092557610954565b60019150506109b3565b60ff84111561093757610936610858565b5b8360020a91508482111561094e5761094d610858565b5b506109b3565b5060208310610133831016604e8410600b84101617156109895782820a90508381111561098457610983610858565b5b6109b3565b6109968484846001610894565b925090508184048111156109ad576109ac610858565b5b81810290505b9392505050565b600060ff82169050919050565b60006109d2826105f8565b91506109dd836109ba565b9250610a0a7fffffffffffffffffffffffffffffffffffffffffffffffffffffffffffffffff84846108e7565b905092915050565b6000610a1d826105f8565b9150610a28836105f8565b9250828202610a36816105f8565b91508282048414831517610a4d57610a4c610858565b5b5092915050565b6000610a5f826105f8565b9150610a6a836105f8565b9250828201905080821115610a8257610a81610858565b5b92915050565b610a91816105f8565b82525050565b6000606082019050610aac600083018661082e565b610ab96020830185610a88565b610ac66040830184610a88565b949350505050565b6000602082019050610ae36000830184610a88565b92915050565b6118b780610af86000396000f3fe6080604052600436106100e85760003560e01c80638da5cb5b1161008a578063d0c97fad11610059578063d0c97fad146102e6578063dd62ed3e14610302578063ecedebb21461033f578063f2fde38b14610368576100e8565b80638da5cb5b1461023c57806395d89b4114610267578063a0ef91df14610292578063a9059cbb146102a9576100e8565b806323b872dd116100c657806323b872dd14610180578063313ce567146101bd57806370a08231146101e8578063715018a614610225576100e8565b806306fdde03146100ed578063095ea7b31461011857806318160ddd14610155575b600080fd5b3480156100f957600080fd5b50610102610391565b60405161010f91906111e1565b60405180910390f35b34801561012457600080fd5b5061013f600480360381019061013a919061129c565b610423565b60405161014c91906112f7565b60405180910390f35b34801561016157600080fd5b5061016a610446565b6040516101779190611321565b60405180910390f35b34801561018c57600080fd5b506101a760048036038101906101a2919061133c565b610450565b6040516101b491906112f7565b60405180910390f35b3480156101c957600080fd5b506101d261047f565b6040516101df91906113ab565b60405180910390f35b3480156101f457600080fd5b5061020f600480360381019061020a91906113c6565b610488565b60405161021c9190611321565b60405180910390f35b34801561023157600080fd5b5061023a6104d0565b005b34801561024857600080fd5b506102516104e4565b60405161025e9190611402565b60405180910390f35b34801561027357600080fd5b5061027c61050e565b60405161028991906111e1565b60405180910390f35b34801561029e57600080fd5b506102a76105a0565b005b3480156102b557600080fd5b506102d060048036038101906102cb919061129c565b610641565b6040516102dd91906112f7565b60405180910390f35b61030060048036038101906102fb91906113c6565b610664565b005b34801561030e57600080fd5b506103296004803603810190610324919061141d565b6107aa565b6040516103369190611321565b60405180910390f35b34801561034b57600080fd5b506103666004803603810190610361919061129c565b610831565b005b34801561037457600080fd5b5061038f600480360381019061038a91906113c6565b6109df565b005b6060600380546103a09061148c565b80601f01602080910402602001604051908101604052809291908181526020018280546103cc9061148c565b80156104195780601f106103ee57610100808354040283529160200191610419565b820191906000526020600020905b8154815290600101906020018083116103fc57829003601f168201915b5050505050905090565b60008061042e610a65565b905061043b818585610a6d565b600191505092915050565b6000600254905090565b60008061045b610a65565b9050610468858285610a7f565b610473858585610b14565b60019150509392505050565b60006012905090565b60008060008373ffffffffffffffffffffffffffffffffffffffff1673ffffffffffffffffffffffffffffffffffffffff168152602001908152602001600020549050919050565b6104d8610c08565b6104e26000610c8f565b565b6000600560009054906101000a900473ffffffffffffffffffffffffffffffffffffffff16905090565b60606004805461051d9061148c565b80601f01602080910402602001604051908101604052809291908181526020018280546105499061148c565b80156105965780601f1061056b57610100808354040283529160200191610596565b820191906000526020600020905b81548152906001019060200180831161057957829003601f168201915b5050505050905090565b6105a8610c08565b6000479050600081116105f0576040517f08c379a00000000000000000000000000000000000000000000000000000000081526004016105e790611509565b60405180910390fd5b6105f86104e4565b73ffffffffffffffffffffffffffffffffffffffff166108fc829081150290604051600060405180830381858888f1935050505015801561063d573d6000803e3d6000fd5b5050565b60008061064c610a65565b9050610659818585610b14565b600191505092915050565b61066c610c08565b600034116106af576040517f08c379a00000000000000000000000000000000000000000000000000000000081526004016106a690611575565b60405180910390fd5b600073ffffffffffffffffffffffffffffffffffffffff168173ffffffffffffffffffffffffffffffffffffffff160361071e576040517f08c379a0000000000000000000000000000000000000000000000000000000008152600401610715906115e1565b60405180910390fd5b600060643461072d9190611630565b905061074161073a6104e4565b8383610b14565b3373ffffffffffffffffffffffffffffffffffffffff168273ffffffffffffffffffffffffffffffffffffffff167fdeb694333db427a215bd304eb27e4cd3d611bfb117c37646ef7b4fffe5611bcc8360405161079e9190611321565b60405180910390a35050565b6000600160008473ffffffffffffffffffffffffffffffffffffffff1673ffffffffffffffffffffffffffffffffffffffff16815260200190815260200160002060008373ffffffffffffffffffffffffffffffffffffffff1673ffffffffffffffffffffffffffffffffffffffff16815260200190815260200160002054905092915050565b610839610c08565b6000811161087c576040517f08c379a0000000000000000000000000000000000000000000000000000000008152600401610873906116be565b60405180910390fd5b8061088683610488565b10156108c7576040517f08c379a00000000000000000000000000000000000000000000000000000000081526004016108be9061172a565b60405180910390fd5b60006064826108d69190611779565b90508047101561091b576040517f08c379a0000000000000000000000000000000000000000000000000000000008152600401610912906117f6565b60405180910390fd5b61092d836109276104e4565b84610450565b508273ffffffffffffffffffffffffffffffffffffffff166108fc829081150290604051600060405180830381858888f19350505050158015610974573d6000803e3d6000fd5b503373ffffffffffffffffffffffffffffffffffffffff168373ffffffffffffffffffffffffffffffffffffffff167f892212fefec48d5ab9985161b9e69f149494b9970bd1981c3dbf712d63f0d59c846040516109d29190611321565b60405180910390a3505050565b6109e7610c08565b600073ffffffffffffffffffffffffffffffffffffffff168173ffffffffffffffffffffffffffffffffffffffff1603610a595760006040517f1e4fbdf7000000000000000000000000000000000000000000000000000000008152600401610a509190611402565b60405180910390fd5b610a6281610c8f565b50565b600033905090565b610a7a8383836001610d55565b505050565b6000610a8b84846107aa565b90507fffffffffffffffffffffffffffffffffffffffffffffffffffffffffffffffff811015610b0e5781811015610afe578281836040517ffb8f41b2000000000000000000000000000000000000000000000000000000008152600401610af593929190611816565b60405180910390fd5b610b0d84848484036000610d55565b5b50505050565b600073ffffffffffffffffffffffffffffffffffffffff168373ffffffffffffffffffffffffffffffffffffffff1603610b865760006040517f96c6fd1e000000000000000000000000000000000000000000000000000000008152600401610b7d9190611402565b60405180910390fd5b600073ffffffffffffffffffffffffffffffffffffffff168273ffffffffffffffffffffffffffffffffffffffff1603610bf85760006040517fec442f05000000000000000000000000000000000000000000000000000000008152600401610bef9190611402565b60405180910390fd5b610c03838383610f2c565b505050565b610c10610a65565b73ffffffffffffffffffffffffffffffffffffffff16610c2e6104e4565b73ffffffffffffffffffffffffffffffffffffffff1614610c8d57610c51610a65565b6040517f118cdaa7000000000000000000000000000000000000000000000000000000008152600401610c849190611402565b60405180910390fd5b565b6000600560009054906101000a900473ffffffffffffffffffffffffffffffffffffffff16905081600560006101000a81548173ffffffffffffffffffffffffffffffffffffffff021916908373ffffffffffffffffffffffffffffffffffffffff1602179055508173ffffffffffffffffffffffffffffffffffffffff168173ffffffffffffffffffffffffffffffffffffffff167f8be0079c531659141344cd1fd0a4f28419497f9722a3daafe3b4186f6b6457e060405160405180910390a35050565b600073ffffffffffffffffffffffffffffffffffffffff168473ffffffffffffffffffffffffffffffffffffffff1603610dc75760006040517fe602df05000000000000000000000000000000000000000000000000000000008152600401610dbe9190611402565b60405180910390fd5b600073ffffffffffffffffffffffffffffffffffffffff168373ffffffffffffffffffffffffffffffffffffffff1603610e395760006040517f94280d62000000000000000000000000000000000000000000000000000000008152600401610e309190611402565b60405180910390fd5b81600160008673ffffffffffffffffffffffffffffffffffffffff1673ffffffffffffffffffffffffffffffffffffffff16815260200190815260200160002060008573ffffffffffffffffffffffffffffffffffffffff1673ffffffffffffffffffffffffffffffffffffffff168152602001908152602001600020819055508015610f26578273ffffffffffffffffffffffffffffffffffffffff168473ffffffffffffffffffffffffffffffffffffffff167f8c5be1e5ebec7d5bd14f71427d1e84f3dd0314c0f7b2291e5b200ac8c7c3b92584604051610f1d9190611321565b60405180910390a35b50505050565b600073ffffffffffffffffffffffffffffffffffffffff168373ffffffffffffffffffffffffffffffffffffffff1603610f7e578060026000828254610f72919061184d565b92505081905550611051565b60008060008573ffffffffffffffffffffffffffffffffffffffff1673ffffffffffffffffffffffffffffffffffffffff1681526020019081526020016000205490508181101561100a578381836040517fe450d38c00000000000000000000000000000000000000000000000000000000815260040161100193929190611816565b60405180910390fd5b8181036000808673ffffffffffffffffffffffffffffffffffffffff1673ffffffffffffffffffffffffffffffffffffffff16815260200190815260200160002081905550505b600073ffffffffffffffffffffffffffffffffffffffff168273ffffffffffffffffffffffffffffffffffffffff160361109a57806002600082825403925050819055506110e7565b806000808473ffffffffffffffffffffffffffffffffffffffff1673ffffffffffffffffffffffffffffffffffffffff168152602001908152602001600020600082825401925050819055505b8173ffffffffffffffffffffffffffffffffffffffff168373ffffffffffffffffffffffffffffffffffffffff167fddf252ad1be2c89b69c2b068fc378daa952ba7f163c4a11628f55a4df523b3ef836040516111449190611321565b60405180910390a3505050565b600081519050919050565b600082825260208201905092915050565b60005b8381101561118b578082015181840152602081019050611170565b60008484015250505050565b6000601f19601f8301169050919050565b60006111b382611151565b6111bd818561115c565b93506111cd81856020860161116d565b6111d681611197565b840191505092915050565b600060208201905081810360008301526111fb81846111a8565b905092915050565b600080fd5b600073ffffffffffffffffffffffffffffffffffffffff82169050919050565b600061123382611208565b9050919050565b61124381611228565b811461124e57600080fd5b50565b6000813590506112608161123a565b92915050565b6000819050919050565b61127981611266565b811461128457600080fd5b50565b60008135905061129681611270565b92915050565b600080604083850312156112b3576112b2611203565b5b60006112c185828601611251565b92505060206112d285828601611287565b9150509250929050565b60008115159050919050565b6112f1816112dc565b82525050565b600060208201905061130c60008301846112e8565b92915050565b61131b81611266565b82525050565b60006020820190506113366000830184611312565b92915050565b60008060006060848603121561135557611354611203565b5b600061136386828701611251565b935050602061137486828701611251565b925050604061138586828701611287565b9150509250925092565b600060ff82169050919050565b6113a58161138f565b82525050565b60006020820190506113c0600083018461139c565b92915050565b6000602082840312156113dc576113db611203565b5b60006113ea84828501611251565b91505092915050565b6113fc81611228565b82525050565b600060208201905061141760008301846113f3565b92915050565b6000806040838503121561143457611433611203565b5b600061144285828601611251565b925050602061145385828601611251565b9150509250929050565b7f4e487b7100000000000000000000000000000000000000000000000000000000600052602260045260246000fd5b600060028204905060018216806114a457607f821691505b6020821081036114b7576114b661145d565b5b50919050565b7f4e6f2045544820746f2077697468647261770000000000000000000000000000600082015250565b60006114f360128361115c565b91506114fe826114bd565b602082019050919050565b60006020820190508181036000830152611522816114e6565b9050919050565b7f4d7573742073656e642045544820746f20707572636861736520746f6b656e73600082015250565b600061155f60208361115c565b915061156a82611529565b602082019050919050565b6000602082019050818103600083015261158e81611552565b9050919050565b7f496e76616c696420757365722061646472657373000000000000000000000000600082015250565b60006115cb60148361115c565b91506115d682611595565b602082019050919050565b600060208201905081810360008301526115fa816115be565b9050919050565b7f4e487b7100000000000000000000000000000000000000000000000000000000600052601160045260246000fd5b600061163b82611266565b915061164683611266565b925082820261165481611266565b9150828204841483151761166b5761166a611601565b5b5092915050565b7f416d6f756e74206d7573742062652067726561746572207468616e2030000000600082015250565b60006116a8601d8361115c565b91506116b382611672565b602082019050919050565b600060208201905081810360008301526116d78161169b565b9050919050565b7f496e73756666696369656e742062616c616e6365000000000000000000000000600082015250565b600061171460148361115c565b915061171f826116de565b602082019050919050565b6000602082019050818103600083015261174381611707565b9050919050565b7f4e487b7100000000000000000000000000000000000000000000000000000000600052601260045260246000fd5b600061178482611266565b915061178f83611266565b92508261179f5761179e61174a565b5b828204905092915050565b7f496e73756666696369656e742045544820696e20636f6e747261637400000000600082015250565b60006117e0601c8361115c565b91506117eb826117aa565b602082019050919050565b6000602082019050818103600083015261180f816117d3565b9050919050565b600060608201905061182b60008301866113f3565b6118386020830185611312565b6118456040830184611312565b949350505050565b600061185882611266565b915061186383611266565b925082820190508082111561187b5761187a611601565b5b9291505056fea264697066735822122047efc4acc68c2dace83276ab1ea5d9ac4b512e4debadc66f65a18b3307268f4a64736f6c634300081a0033",
  "linkReferences": {},
  "deployedLinkReferences": {}
}